:04000000FEEFFFF020
:102000000000000E0001676F000E666F686BB6EF90
:1020100010F0CB80CBA80FEF10F011EF10F01FEFF6
:1020200010F0010E686F010E6625666F000E6721C5
:10203000676FC80E00D0E82EFDD74AEF10F0CBAA8C
:1020400024EF10F026EF10F02AEF10F0040E686F66
:1020500013EF10F0CBAC2FEF10F031EF10F035EFA5
:1020600010F0070E686F13EF10F0CBAE3AEF10F0E0
:102070003CEF10F04AEF10F0010E6025606F000E8B
:102080006121616F010E6625666F000E6721676F23
:1020900019EF10F0CB90CB82CBA851EF10F053EF9B
:1020A00010F062EF10F0020E0001686F010E66255D
:1020B000666F000E6721676FC80E00D0E82EFDD74F
:1020C00085EF10F0CBAA67EF10F069EF10F06EEF1C
:1020D00010F0050E0001686F56EF10F0CBAC73EFF7
:1020E00010F075EF10F07AEF10F0080E0001686F35
:1020F00056EF10F0CBAE7FEF10F081EF10F085EFD0
:1021000010F00001686B56EF10F0CB92CB84CBA897
:102110008CEF10F08EEF10F09DEF10F0030E000129
:10212000686F010E6625666F000E6721676FC80E27
:1021300000D0E82EFDD7B5EF10F0CBAAA2EF10F03B
:10214000A4EF10F0A9EF10F0060E0001686F91EFF8
:1021500010F0CBACAEEF10F0B0EF10F0B5EF10F028
:10216000090E0001686F91EF10F0CB94000167BF7A
:10217000C2EF10F0675108E16605D8A0C2EF10F079
:10218000C4EF10F009EF10F01200B6EC12F001EC01
:1021900010F0000160056111D8A4D1EF10F0D3EF69
:1021A00010F0D5EF10F0C5EF10F068510A0D6F0078
:1021B000CCFF10F06F00D0FF11F001501024016E21
:1021C00002501120026E030E116E8A0E106E560E12
:1021D000E82EFED7102EFCD7112EFAD701EC10F006
:1021E000000160056111D8A4F8EF10F0FAEF10F0CB
:1021F000FCEF10F0C5EF10F068510124016E000EE5
:102200000220026ECD80EFEC11F00001600561113B
:10221000D8A40DEF11F00FEF11F011EF11F0C5EF91
:1022200010F001EC10F0000160056111D8A41BEF63
:1022300011F01DEF11F01FEF11F0C5EF10F0685114
:102240000A0D6F00CCFF10F06F00D0FF11F00350AB
:102250001024036E04501120046E030E116E8A0EBA
:10226000106E560EE82EFED7102EFCD7112EFAD780
:1022700001EC10F0000160056111D8A442EF11F0EB
:1022800044EF11F046EF11F0C5EF10F06851032450
:10229000036E000E0420046ECD90CD8270EC11F020
:1022A000000160056111D8A458EF11F05AEF11F048
:1022B0005CEF11F0C5EF10F0CD9260001FF0CDFF84
:1022C0001A0E116E5E0E106E6E0EE82EFED7102ED8
:1022D000FCD7112EFAD700D0C5EF10F0FEEFFFF0BB
:1022E000000E0001636F000E626F9BEF11F0CB8454
:1022F000CBAE7DEF11F07FEF11F085EF11F0010E05
:102300006225626F000E6321636FCB94CB80CBAEEE
:102310008CEF11F08EEF11F09AEF11F0010E6025A5
:10232000606F000E6121616F010E6225626F000E09
:102330006321636FCB9063BFA6EF11F0635108E197
:102340006205D8A0A6EF11F0A8EF11F077EF11F019
:1023500005040610D8A4AFEF11F0B1EF11F0B6EFFD
:1023600011F001500324076EEEEF11F0020E051874
:102370000610D8A4BEEF11F0C0EF11F0C5EF11F0B8
:102380000350015C076EEEEF11F0030E0518061006
:10239000D8A4CDEF11F0CFEF11F0D6EF11F001502E
:1023A00003026F00CCFF07F0EEEF11F0040E0518EA
:1023B0000610D8A4DEEF11F0E0EF11F0EEEF11F00F
:1023C00001C008F002C009F003C00AF004C00BF01D
:1023D00055EC12F00850076EEEEF11F01200000EEF
:1023E0000001656F000E646F47EF12F0CB86CBA83B
:1023F000FCEF11F0FEEF11F00AEF12F0000E066E86
:10240000010E056E010E6425646F000E6521656F77
:1024100031EF12F0CBAA0FEF12F011EF12F017EF1D
:1024200012F0000E066E020E056E02EF12F0CBAC3B
:102430001CEF12F01EEF12F024EF12F0000E066EE9
:10244000030E056E02EF12F0CBAE29EF12F02BEF68
:1024500012F031EF12F0000E066E040E056E02EF60
:1024600012F0CB96CB80CBAE38EF12F03AEF12F0F1
:1024700046EF12F0010E6025606F000E6121616F62
:10248000010E6425646F000E6521656FCB9065BFFA
:1024900052EF12F0655108E16405D8A052EF12F036
:1024A00054EF12F0F6EF11F012000D6A0BBE5DEF63
:1024B00012F05BEF12F063EF12F00A6C0B1ED8B053
:1024C0000B2A010E0D6E09BE6AEF12F068EF12F0D2
:1024D00070EF12F0086C091ED8B0092A010E0D1A0F
:1024E000000E0F6E000E0E6E0A500B10D8B47BEF6C
:1024F00012F07DEF12F0A5EF12F0010E0C6E85EFD9
:1025000012F0D8900A360B360C2A0BAE8AEF12F076
:102510008CEF12F081EF12F0D8900E360F360A5081
:10252000085C0B500958D8A098EF12F09AEF12F0FF
:102530009FEF12F00A50085E0B50095A0E80D89097
:102540000B320A320C2E8CEF12F00D50D8B4ABEFD8
:1025500012F0ADEF12F0B1EF12F00E6C0F1ED8B00A
:102560000F2A0EC008F00FC009F01200000E026E14
:10257000000E016E000E046E000E036E0001686B0B
:10258000000E066E000E056E076AE5EC12F0ECEC2C
:1025900012F0000E0001676F000E666F000E656F8F
:1025A000000E646F000E636F000E626F000E616FAD
:1025B000000E606F686B120000EE60F0090EEE6AAC
:1025C000E806FDE10001C5EF10F0CB6AF00EC36E26
:1025D000BB6A3A01506B1200CD6AC56ABD6A3A0106
:0425E000706B12000A
:020000040001F9
:04FFFC00DCEF12F034
:020000040030CA
:0A000000F8FFFFFF9FFFFFFFFFFF67
:00000001FF
