:04000000FEEFFFF020
:102000000000000E0001656F000E646F666B8EEFBE
:1020100010F0CB80CBA80FEF10F011EF10F01BEFFA
:1020200010F0010E666F010E6425646F000E6521CD
:10203000656F31EF10F0CBAA20EF10F022EF10F017
:1020400026EF10F0040E666F13EF10F0CBAC2BEF01
:1020500010F02DEF10F031EF10F0070E666F13EF58
:1020600010F0CB90CB82CBA838EF10F03AEF10F005
:1020700044EF10F0020E666F010E6425646F000ECF
:102080006521656F64EF10F0CBAA49EF10F04BEFBC
:1020900010F04FEF10F0050E666F3CEF10F0CBAC78
:1020A00054EF10F056EF10F05AEF10F0080E666F74
:1020B0003CEF10F0CBAE5FEF10F061EF10F064EF8B
:1020C00010F0666B3CEF10F0CB92CB84CBA86BEF9B
:1020D00010F06DEF10F077EF10F0030E666F010E49
:1020E0006425646F000E6521656F8DEF10F0CBAA3B
:1020F0007CEF10F07EEF10F082EF10F0060E666FAE
:102100006FEF10F0CBAC87EF10F089EF10F08DEF90
:1021100010F0090E666F6FEF10F0CB9465BF99EF6A
:1021200010F0655108E16405D8A099EF10F09BEF1D
:1021300010F009EF10F01200000E0001616F000EA8
:10214000606FB1EF10F0CB84CBAEA9EF10F0ABEF26
:1021500010F0B1EF10F0010E6025606F000E6121EC
:10216000616F61BFBCEF10F0615108E16005D8A05C
:10217000BCEF10F0BEEF10F0A3EF10F00504061056
:10218000D8A4C5EF10F0C7EF10F0CCEF10F001505D
:102190000324076E06EF11F0020E05180610D8A4EE
:1021A000D4EF10F0D6EF10F0DDEF10F00350015C2B
:1021B000106E1028076E06EF11F0030E05180610BA
:1021C000D8A4E5EF10F0E7EF10F0EEEF10F00150BB
:1021D00003026F00CCFF07F006EF11F0040E0518A4
:1021E0000610D8A4F6EF10F0F8EF10F006EF11F09B
:1021F00001C008F002C009F003C00AF004C00BF0EF
:1022000008EC11F00850076E06EF11F0CB941200A5
:102210000D6A0BBE10EF11F00EEF11F016EF11F07A
:102220000A6C0B1ED8B00B2A010E0D6E09BE1DEFF5
:1022300011F01BEF11F023EF11F0086C091ED8B05C
:10224000092A010E0D1A000E0F6E000E0E6E0A50B6
:102250000B10D8B42EEF11F030EF11F058EF11F051
:10226000010E0C6E38EF11F0D8900A360B360C2A9E
:102270000BAE3DEF11F03FEF11F034EF11F0D890BD
:102280000E360F360A50085C0B500958D8A04BEF99
:1022900011F04DEF11F052EF11F00A50085E0B50A3
:1022A000095A0E80D8900B320A320C2E3FEF11F0F3
:1022B0000D50D8B45EEF11F060EF11F064EF11F043
:1022C0000E6C0F1ED8B00F2A0EC008F00FC009F018
:1022D00012000BEC12F001EC10F0000166510A0D37
:1022E0006F00CCFF11F06F00D0FF12F001501124ED
:1022F000016E02501220026E01EC10F000016651D6
:102300000124016E000E0220026ECD80BAEC11F0A5
:1023100001EC10F0000166510A0D6F00CCFF11F0C6
:102320006F00D0FF12F003501124036E04501220EE
:10233000046E01EC10F0000166510324036E000EE0
:102340000420046ECD90CD829CEC10F0CD92600004
:102350001FF0CDFF1A0E126E5E0E116E6E0EE82E7D
:10236000FED7112EFCD7122EFAD700D069EF11F04C
:10237000FEEFFFF0000E0001636F000E626FFDEFD5
:1023800011F0CB86CBA8C7EF11F0C9EF11F0D5EF54
:1023900011F0000E066E010E056E010E6225626FD1
:1023A000000E6321636FFCEF11F0CBAADAEF11F09E
:1023B000DCEF11F0E2EF11F0000E066E020E056E7A
:1023C000CDEF11F0CBACE7EF11F0E9EF11F0EFEF4B
:1023D00011F0000E066E030E056ECDEF11F0CBAEC0
:1023E000F4EF11F0F6EF11F0FCEF11F0000E066EB5
:1023F000040E056ECDEF11F0CB9663BF08EF12F01F
:10240000635108E16205D8A008EF12F00AEF12F05C
:10241000C1EF11F01200000E026E000E016E000EF0
:10242000046E000E036E0001666B000E066E000E59
:10243000056E076A36EC12F03DEC12F0000E00015A
:10244000656F000E646F000E636F000E626F000E0A
:10245000616F000E606F666B120000EE60F0070E99
:10246000EE6AE806FDE1000169EF11F0CB6AF00EBB
:10247000C36EBB6A3A01506B1200CD6AC56ABD6A71
:062480003A01706B12002E
:020000040001F9
:04FFFC002DEF12F0E3
:020000040030CA
:0A000000F8FFFFFF9FFFFFFFFFFF67
:00000001FF
