:0400000002EF00F01B
:10002000000ED86EF80EC56E0F0E206E140E216EE7
:1000300038EF00F0F00E216404D000D0216C0F0ED8
:10004000010F216001D006D0216401D008D02162C7
:10005000D9D70AD0020ECD6E010E226E66D0040EE4
:10006000CD6E020E226E61D0000E226ECD6E5DD07E
:10007000586A0F0E596E640E59644EEF00F041EF4E
:1000800000F0640E596048EF00F0586A4EEF00F03F
:10009000640E595E010E582641EF00F00A0E5960B9
:1000A00054EF00F05AEF00F00A0E595E010E582688
:1000B0004EEF00F058C061F059C060F060EF00F002
:1000C000586A140E406EF00E40646EEF00F0406C03
:1000D000600003F1E8FF596E70EF00F0140E596EE6
:1000E000640E596483EF00F076EF00F0640E5960FF
:1000F0007DEF00F0586A83EF00F0640E595E010E48
:10010000582676EF00F00A0E596089EF00F08FEF65
:1001100000F00A0E595E010E582683EF00F058C019
:0A01200071F059C070F01AEF00F002
:00000001FF
