:0400000002EF00F01B
:10002000000ED86EF80EC56E37EF00F00F0E206E82
:10003000FB0E216EF00E216402D000D0216C0F0E59
:10004000216001D006D0216401D008D02162DAD726
:100050000AD0020ECD6E010E226E66D0040ECD6E59
:10006000020E226E61D0000E226ECD6E5DD0586AF7
:100070000F0E596E640E59644DEF00F040EF00F022
:10008000640E596047EF00F0586A4DEF00F0640EBF
:10009000595E010E582640EF00F00A0E596053EFEA
:1000A00000F059EF00F00A0E595E010E58264DEF90
:1000B00000F058C061F059C060F05FEF00F0586A7E
:1000C000FB0E406EF00E40646DEF00F0406C60007F
:1000D00003F1E8FF596E6FEF00F0FB0E596E640EEE
:1000E000596482EF00F075EF00F0640E59607CEF08
:1000F00000F0586A82EF00F0640E595E010E582637
:1001000075EF00F00A0E596088EF00F08EEF00F0F6
:100110000A0E595E010E582682EF00F058C071F0A9
:0801200059C070F016EF00F069
:00000001FF
