:0400000002EF00F01B
:10002000000ED86EF80EC56E39EF00F00A0E206E85
:10003000F60E216EF00E216404D000D0216C010E6A
:100040002026200E216001D006D0216401D008D0E6
:100050002162D8D70AD0020ECD6E010E226E66D074
:10006000040ECD6E020E226E61D0000E226ECD6E99
:100070005DD0586A0A0E596E640E59644FEF00F055
:1000800042EF00F0640E596049EF00F0586A4FEFFC
:1000900000F0640E595E010E582642EF00F00A0E81
:1000A000596055EF00F05BEF00F00A0E595E010E4B
:1000B00058264FEF00F058C061F059C060F061EF72
:1000C00000F0586AF60E406EF00E40646FEF00F0DC
:1000D000406C600003F1E8FF596E71EF00F0F60E1E
:1000E000596E640E596484EF00F077EF00F0640EEF
:1000F00059607EEF00F0586A84EF00F0640E595E9C
:10010000010E582677EF00F00A0E59608AEF00F0D2
:1001100090EF00F00A0E595E010E582684EF00F0B1
:0C01200058C071F059C070F016EF00F0EC
:00000001FF
