:0400000002EF00F01B
:10002000000ED86EF80EC56E3AEF00F00B0E206E83
:100030000B0E216EF00E216404D000D0216C010E55
:100040002026600083F0E8FF216029EF00F02CEF0C
:1000500000F021640BD005D0020ECD6E010E226E91
:1000600066D0040ECD6E020E226E61D0000E226E9E
:10007000CD6E5DD0586A0B0E596E640E596450EF08
:1000800000F043EF00F0640E59604AEF00F0586A48
:1000900050EF00F0640E595E010E582643EF00F059
:1000A0000A0E596056EF00F05CEF00F00A0E595E40
:1000B000010E582650EF00F058C061F059C060F0B2
:1000C00062EF00F0586A0B0E406EF00E406470EF65
:1000D00000F0406C600003F1E8FF596E72EF00F031
:1000E0000B0E596E640E596485EF00F078EF00F046
:1000F000640E59607FEF00F0586A85EF00F0640EDF
:10010000595E010E582678EF00F00A0E59608BEF09
:1001100000F091EF00F00A0E595E010E582685EFAF
:0E01200000F058C071F059C070F016EF00F0FA
:00000001FF
