:04000000FEEFFFF020
:102000000028270000000000000000000000000081
:1020100000000000000000000000000000000000C0
:1020200000000000000000000000000000000000B0
:1020300000000000000000000000000000C62800B2
:10204000A428008228000000004D696E203A20314B
:10205000204D6178203A20313030302025640D0A3F
:10206000004D696E203A2031204D6178203A2034AD
:10207000302025640D0A0048656C6C6F20576F7224
:102080006C642E2E2E2E0D0A00001F50D96EDA6AB7
:102090006F007FFFF6FF200EF76E000EF86E08004F
:1020A000F550250AD8A457EF10F059EF10F01CEFA7
:1020B00011F01F50D96EDA6ADF2A000E476E000E4B
:1020C000466E46C04CF0486849681F50D96EDA6ABF
:1020D000DF50236E60008FF0F6FF200EF76E000ECB
:1020E000F86E0800F550640AD8B479EF10F07BEF71
:1020F00010F08CEF10F060008FF0F6FF200EF76EFE
:10210000000EF86E0800F550690AD8A48AEF10F0A6
:102110008CEF10F016EF11F02050D96EDA6A020E33
:10212000DF26DF5CD96EDA6A6F0078FF24F06F007B
:1021300078FF25F01F50D96EDA6A2328DF6E200E53
:10214000286E25BEA6EF10F0A9EF10F0010EAAEF41
:1021500010F0000E226E28062850600FD96EDA6A41
:1021600024C013F025C014F0000E166E0A0E156E72
:1021700000EC12F013C019F014C01AF027EC14F0A0
:102180001950300FDF6E24C001F025C002F0000EA0
:10219000046E0A0E036E9FEC11F001C024F002C021
:1021A00025F024502510D8B4D8EF10F0DAEF10F055
:1021B000E2EF10F02850D8A4E0EF10F0E2EF10F0BA
:1021C000ABEF10F02850D8B4E8EF10F0EAEF10F0C1
:1021D0000BEF11F02250D8B4F0EF10F0F2EF10F046
:1021E0000BEF11F028062850600FD96EDA6A2D0E19
:1021F000DF6E0BEF11F02850600FD96EDA6ADF50F6
:10220000216E2150016E026A1DC003F01EC004F051
:1022100033EC11F0282A200E2818D8A412EF11F060
:1022200014EF11F0FBEF10F032EF11F01F50D96EE8
:10223000DA6ADF2A32EF11F01F50D96EDA6A6F00C6
:102240007FFFF6FF200EF76E000EF86E0800F550C7
:10225000016E026A1DC003F01EC004F033EC11F0E1
:1022600016EF11F0120003500410D8B43AEF11F039
:102270003CEF11F045EF11F003500410D8A443EFE8
:1022800011F045EF11F04AEF11F00150C4EC14F0D9
:102290009EEF11F020EE09F00350D9260450DA2207
:1022A000DE50DE10D8B457EF11F059EF11F074EF93
:1022B00011F020EE09F00350D9260450DA2210EE76
:1022C00002F00350E1260450E222DE50E65CE650C4
:1022D000800A096EDE50800A0958D8B072EF11F0FA
:1022E00074EF11F09EEF11F020EE02F00350D926AA
:1022F0000450DA226F0078FF05F06F0074FF06F0DB
:1023000060000FF0D9FF600013F0DAFF6F0078FF74
:1023100007F06F0074FF08F005500724D96E0650CF
:102320000820DA6E600007F0DFFF20EE02F00350B5
:10233000D9260450DA22DE2A000EDD221200066AB7
:1023400004BEA7EF11F0A5EF11F0ADEF11F0036C93
:10235000041ED8B0042A010E066E02BEB4EF11F0BE
:10236000B2EF11F0BAEF11F0016C021ED8B0022AE0
:10237000010E061A000E086E000E076E03500410C0
:10238000D8B4C5EF11F0C7EF11F0EFEF11F0010E67
:10239000056ECFEF11F0D89003360436052A04AE4F
:1023A000D4EF11F0D6EF11F0CBEF11F0D890073643
:1023B00008360350015C04500258D8A0E2EF11F037
:1023C000E4EF11F0E9EF11F00350015E0450025AFE
:1023D0000780D89004320332052ED6EF11F0065054
:1023E000D8B4F5EF11F0F7EF11F0FBEF11F0076C37
:1023F000081ED8B0082A07C001F008C002F0120079
:10240000186A14BE08EF12F006EF12F00EEF12F089
:10241000136C141ED8B0142A010E186E16BE15EFD8
:1024200012F013EF12F019EF12F0156C161ED8B05F
:10243000162A15501610D8B420EF12F022EF12F021
:1024400046EF12F0010E176E2AEF12F0D8901536F3
:102450001636172A16AE2FEF12F031EF12F026EFD4
:1024600012F01550135C16501458D8A03AEF12F021
:102470003CEF12F040EF12F01550135E1650145A54
:10248000D89016321532172E31EF12F01850D8B4FA
:102490004CEF12F04EEF12F052EF12F0136C141ECC
:1024A000D8B0142A13C013F014C014F012009DEC1D
:1024B00014F094EC13F0000E016E000E026E0BECA3
:1024C00014F001C005F002C006F083EC14F0770EA2
:1024D0002E6E90EC14F0610E2E6E000E1A6E010E30
:1024E000196E000E1C6E280E1B6EA0EC12F019C0A7
:1024F0002FF01AC030F090EC14F0490E2E6E000E42
:102500001A6E640E196E030E1C6EE80E1B6EA0ECA4
:1025100012F019C02FF01AC030F090EC14F0290E10
:10252000336E960E326E7F0EE82EFED7322EFCD71B
:10253000332EFAD70000CB7267EF12F0FEEFFFF0F8
:10254000000E236E000E226E000E216E000E206E15
:102550001B50195C1A50800A1D6E1C50800A1D58B1
:10256000D8B0B5EF12F0B7EF12F0C3EF12F019C008
:1025700022F01AC023F0010E1B24206E000E1C2036
:10258000216ECDEF12F0010E1B24226E000E1C20D6
:10259000236E19C020F01AC021F029EC13F00DC0F1
:1025A00013F00EC014F02250205C156E23502158F9
:1025B000166E00EC12F0225013241E6E23501420CD
:1025C0001F6E1EC019F01FC01AF01200BA6ABB6A53
:1025D000BC6ABD6ABE6A3A01426B526B626B726B37
:1025E000826BC268FD0EC36EC468FE0EC56E070E18
:1025F000C66E4069FD0E506F6069FC0E706F070E6D
:10260000806F416B516B616B716B816B4369536977
:1026100063697369070E836F4469546964697469F7
:102620000F0E846F5A6B5B6B6A6B6B6B7A6B7B6B99
:10263000190EE86F160E186F456B466B476B556B9E
:10264000566B576B656B666B676B856B866B876BC1
:1026500012004DC001F04EC002F04FC003F050C058
:1026600004F02D0E056E7F0E066E950E076E4C0E55
:10267000086E5FEC13F0010E01244D6E000E022077
:102680004E6E000E03204F6E000E0420506E4DC0A3
:102690000FF04EC010F04FC011F050C012F0120EEB
:1026A00057EF13F0D8901232113210320F32E82E59
:1026B00052EF13F00FC00DF010C00EF01200000E1C
:1026C000096E000E0A6E000E0B6E000E0C6E01A05D
:1026D0006CEF13F06EEF13F076EF13F00550092650
:1026E00006500A2207500B2208500C22D8900536BB
:1026F000063607360836D8900432033202320132E9
:102700000150021003100410D8A489EF13F08BEFCE
:1027100013F067EF13F009C001F00AC002F00BC01C
:1027200003F00CC004F012003D01D46BD66BD86BE3
:10273000B00EDA6F800EDB6FDC6B820EDD6F060E83
:10274000DE6F2E0EDF6FE06B800EE16FE26B000E2E
:10275000016E000E026E000E036E63EC14F0000EAC
:10276000016E000E026E000E036E52EC14F0000EAD
:10277000016E000E026E000E036E41EC14F0000EAE
:102780004B6E000E4A6E12002BC02DF0D2EF13F0EC
:1027900029C01DF02AC01EF02D0E1F6E2CC020F087
:1027A00045EC10F06000B7F0F6FF200EF76E000E5B
:1027B000F86E0800F5500009D8A4E1EF13F0E3EF3C
:1027C00013F0C8EF13F0000E2A6E000E296E1200EF
:1027D000D29A3901A191D280000E016E000E026ED4
:1027E000000E036EBDEC14F03901A591D282000EEB
:1027F000016E000E026E000E036EB6EC14F039018D
:10280000A79BD284000E016E000E026E000E036EB6
:10281000AFEC14F0120001500210D8B412EF14F013
:1028200014EF14F022EF14F0600007F0D9FF6000FD
:102830000BF0DAFFFF0EDE6EFF0EDE6EFF0EDE6EB9
:10284000FF0EDD6E016802680368046812001ABE9C
:102850002CEF14F02EEF14F034EF14F019C019F02F
:102860001AC01AF040EF14F019C01BF01AC01CF087
:102870001B1E1C1E1B4A1C2A1BC019F01CC01AF070
:102880001200015002100310D8B449EF14F04BEFBE
:1028900014F051EF14F001C034F002C035F003C061
:1028A00036F01200015002100310D8B45AEF14F0A1
:1028B0005CEF14F062EF14F001C037F002C038F0A2
:1028C00003C039F01200015002100310D8B46BEFAE
:1028D00014F06DEF14F073EF14F001C03AF002C081
:1028E0003BF003C03CF0120000EE60F0200EEE6AF8
:1028F000E806FDE100EE34F01D0EEE6AE806FDE1AB
:10290000000157EF12F0FF0E0524076EFF0E0620A0
:10291000086E07C04DF008C04EF04F6A506A1200B2
:102920002F0E316E000E296E000E2A6E2EC02BF077
:10293000310E2C6EC4EC13F01200A6EC14F0E6EC91
:1029400012F094EC13F0E8EC13F01200600E390171
:10295000D96FDB6BDD6B080EDF6FDE6B120001C021
:102960003DF002C03EF003C03FF0120001C040F055
:1029700002C041F003C042F0120001C043F002C0A7
:0A29800044F003C045F012001200FD
:020000040001F9
:04FFFC0074EF14F09A
:020000040030CA
:0A0000008FFFF7FF9FFFFFFFFFFFD8
:00000001FF
