:040000005DD866D889
:10002000F66A3F0ECD6E000EF86E0A0EF76E000EE9
:10003000F66E1E6A4BEC00F0CBA024EF00F0CBA2D2
:1000400024EF00F01AEF00F0CBB02DEF00F0CBB2B0
:1000500036EF00F01E6A40EF00F0020E1E261E0E64
:100060001E6440EF00F01E6A40EF00F0020E1E5EBC
:10007000FE0E1E6240EF00F01E0E1E6E40EF00F0FE
:1000800060007BF0F6FF08006F00D7FFCDFF4BEC60
:1000900000F01AEF00F0FF0E106EFF0E116E020E50
:1000A000126E1006FEE1FF0E106E1106FAE1FF0E51
:1000B000106EFF0E116E1206F4E112003F01CD6AC0
:1000C0003F01BD6A3A01706B3F01000EC56E120020
:1000D0003F01CB6A3F01BB6A3A01506B3F01030EFF
:0400E000C36E1200D9
:100A00003F0C060C5B0C4F0C660C6D0C7D0C070C40
:100A10007F0C6F0C770C7C0C390C5E0C790C710C14
:020000040030CA
:0A000000F8FFFFFF9FFFFFFFFFFF67
:00000001FF
