:040000005BD864D88D
:10002000F66A3F0ECD6E000EF86E0A0EF76E000EE9
:10003000F66E1E6ACBA022EF00F0CBA222EF00F0FA
:100040001AEF00F0CBB02BEF00F0CBB234EF00F0A2
:100050001E6A3EEF00F0020E1E261E0E1E643EEFCC
:1000600000F01E6A3EEF00F0020E1E5EFE0E1E62E3
:100070003EEF00F01E0E1E6E3EEF00F060007BF0C3
:10008000F6FF08006F00D7FFCDFF49EC00F01AEF34
:1000900000F0FF0E106EFF0E116E030E126E1006B2
:1000A000FEE1FF0E106E1106FAE1FF0E106EFF0E5C
:1000B000116E1206F4E112003F01CD6A3F01BD6AE4
:1000C0003A01706B3F01000EC56E12003F01CB6A12
:1000D0003F01BB6A3A01506B3F01030EC36E120031
:100A00003F0C060C5B0C4F0C660C6D0C7D0C070C40
:100A10007F0C6F0C770C7C0C390C5E0C790C710C14
:020000040030CA
:0A000000F8FFFFFF9FFFFFFFFFFF67
:00000001FF
