:0400000057EF20F0A6
:040200003F065B4F0B
:022000000000DE
:104008002B102B102B102B102B102B102B102B10D0
:10401800B5102B102B102B102B102B102B102B1036
:104028002B102B102B102B102B102B102B102B10B0
:104038002B102B102B102B102B102B102B102B10A0
:104048002B102B102B102B102B102B102B102B1090
:104058002B102B102B102B102B102B102B102B1080
:104068002B102B102B102B102B102B102B102B1070
:104078002B102B102B102B102B102B102B102B1060
:104088002B102B102B102B102B102B102B102B1050
:104098002B102B102B102B102B102B102B102B1040
:1040A8002B102B10FF00D6EF21F0CB8E000E066EE2
:1040B800000E056EBCEF20F0CBB265EF20F067EF85
:1040C80020F08AEF20F0010E0524056E000E062070
:1040D800066E0B0E0E6E260E0D6E5E0EE82EFED7C9
:1040E8000D2EFCD70E2EFAD706BE84EF20F0065010
:1040F80009E1040E055CD8A084EF20F086EF20F0DB
:104108008AEF20F0000E066E000E056ECBBA8FEF18
:1041180020F091EF20F0AFEF20F0010E0324036EA2
:10412800000E0420046E0A0E05026F00CCFF0DF08D
:104138006F00D0FF0EF00602F3500E2607500D2632
:1041480008500E22F60E0D24076EFF0E0E20086E84
:10415800000E066E0568000E0524F66E020E062097
:10416800F76EF86A000EF82208006F00D7FFCDFF3F
:1041780004BEC7EF20F0045008E10304D8A0C7EF3D
:1041880020F0C9EF20F060EF20F0060E0E6E130E3F
:104198000D6EAE0EE82EFED70D2EFCD70E2EFAD7DA
:1041A800000E066E000E056E2DEF21F0CBB4DFEF8A
:1041B80020F0E1EF20F004EF21F0010E0524056E58
:1041C800000E0620066E0B0E0E6E260E0D6E5E0E8F
:1041D800E82EFED70D2EFCD70E2EFAD706BEFEEF20
:1041E80020F0065009E1040E055CD8A0FEEF20F08F
:1041F80000EF21F004EF21F0000E066E000E056EB0
:10420800CBBA09EF21F00BEF21F020EF21F0010EDE
:104218000124016E000E0220026E075005240D6E67
:10422800085006200E6EFF0E0D24076EFF0E0E209E
:10423800086E000E066E0568000E0524F66E020E66
:104248000620F76EF86A000EF82208006F00D7FF04
:10425800CDFF02BE38EF21F0025008E10104D8A0DA
:1042680038EF21F03AEF21F0DAEF20F0150E0718B9
:104278000810D8A442EF21F044EF21F052EF21F0CA
:10428800CB861A0E0E6E5E0E0D6E6E0EE82EFED7E3
:104298000D2EFCD70E2EFAD700D0CB96150E071888
:1042A8000810D8B45AEF21F05CEF21F069EF21F043
:1042B800CB880B0E0E6E260E0D6E5E0EE82EFED708
:1042C8000D2EFCD70E2EFAD7CB9812003901A1A1DA
:1042D80070EF21F072EF21F0B3EF21F0000E0C6EB9
:1042E800000E0B6ECA82020E0A6E040E096EBA0E1A
:1042F800E82EFED7092EFCD70A2EFAD700D0CA928C
:10430800030E0A6E8A0E096E560EE82EFED7092E87
:10431800FCD70A2EFAD7CA82820E096EDE0EE82E64
:10432800FED7092EFCD7CA92040E0A6E0C0E096E2F
:10433800340EE82EFED7092EFCD70A2EFAD70B4AE0
:104348000C2A0CBEB1EF21F00C5009E1020E0B5CF7
:10435800D8A0B1EF21F0B3EF21F076EF21F03901C9
:10436800A1911100CB6A3A01506BBB6A670EC36E0C
:10437800CD6A706BBD6AC56ACA6A406BBA6AC26A9E
:10438800D28AD28ED28CD290390181819181A19129
:10439800A591D76A400ED66E080ED56E210E3A0149
:1043A800516F1200F60EF66E430EF76E000EF86EA1
:1043B80009006F00D4FF0FF009006F00D4FF10F060
:1043C80000EE01F0080EEE6AE806FDE1080ED56E73
:1043D800400ED66E000ED76E000EF86E0001F5EF97
:1043E80021F0B6EC21F059EC20F057EF20F0150041
:020000040030CA
:0A000000F8FFFFFF9FFFFFFFFFFF67
:00000001FF
