:0400000057EF20F0A6
:040200003F065B4F0B
:022000000000DE
:104008002B102B102B102B102B102B102B102B10D0
:10401800B1102B102B102B102B102B102B102B103A
:104028002B102B102B102B102B102B102B102B10B0
:104038002B102B102B102B102B102B102B102B10A0
:104048002B102B102B102B102B102B102B102B1090
:104058002B102B102B102B102B102B102B102B1080
:104068002B102B102B102B102B102B102B102B1070
:104078002B102B102B102B102B102B102B102B1060
:104088002B102B102B102B102B102B102B102B1050
:104098002B102B102B102B102B102B102B102B1040
:1040A8002B102B10FF00CEEF21F0CB8E000E066EEA
:1040B800000E056EBAEF20F0CBB265EF20F067EF87
:1040C80020F08AEF20F0010E0524056E000E062070
:1040D800066E0B0E0E6E260E0D6E5E0EE82EFED7C9
:1040E8000D2EFCD70E2EFAD706BE84EF20F0065010
:1040F80009E1040E055CD8A084EF20F086EF20F0DB
:104108008AEF20F0000E066E000E056ECBBA8FEF18
:1041180020F091EF20F0ADEF20F0010E0324036EA4
:10412800000E0420046E05C00DF006C00EF00D3A16
:104138000E3AF00E0E160D500F0B0E12F00E0D1655
:1041480007500D24076E08500E20086E000E066EEC
:104158000568000E0524F66E020E0620F76EF86A52
:10416800000EF82208006F00D7FFCDFF04BEC5EF90
:1041780020F0045008E10304D8A0C5EF20F0C7EFF1
:1041880020F060EF20F0060E0E6E130E0D6EAE0ED0
:10419800E82EFED70D2EFCD70E2EFAD7000E066E8F
:1041A800000E056E25EF21F0CBB4DDEF20F0DFEF38
:1041B80020F002EF21F0010E0524056E000E062006
:1041C800066E0B0E0E6E260E0D6E5E0EE82EFED7D8
:1041D8000D2EFCD70E2EFAD706BEFCEF20F00650A7
:1041E80009E1040E055CD8A0FCEF20F0FEEF20F0FA
:1041F80002EF21F0000E066E000E056ECBBA07EF37
:1042080021F009EF21F018EF21F0010E0124016ED1
:10421800000E0220026E05500724076E0650082083
:10422800086E000E066E0568000E0524F66E020E76
:104238000620F76EF86A000EF82208006F00D7FF14
:10424800CDFF02BE30EF21F0025008E10104D8A0F2
:1042580030EF21F032EF21F0D8EF20F0210E0718CF
:104268000810D8A43AEF21F03CEF21F04AEF21F0F2
:10427800CB861A0E0E6E5E0E0D6E6E0EE82EFED7F3
:104288000D2EFCD70E2EFAD700D0CB96210E07188C
:104298000810D8B452EF21F054EF21F061EF21F06B
:1042A800CB880B0E0E6E260E0D6E5E0EE82EFED718
:1042B8000D2EFCD70E2EFAD7CB9812003901A1A1EA
:1042C80068EF21F06AEF21F0ABEF21F0000E0C6EE1
:1042D800000E0B6ECB88020E0A6E040E096EBA0E23
:1042E800E82EFED7092EFCD70A2EFAD700D0CB9895
:1042F800030E0A6E8A0E096E560EE82EFED7092E98
:10430800FCD70A2EFAD7CB88820E096EDE0EE82E6D
:10431800FED7092EFCD7CB98040E0A6E0C0E096E38
:10432800340EE82EFED7092EFCD70A2EFAD70B4AF0
:104338000C2A0CBEA9EF21F00C5009E1020E0B5C0F
:10434800D8A0A9EF21F0ABEF21F06EEF21F03901F1
:10435800A1911100CB6A3A01506BBB6A670EC36E1C
:10436800CD6A706BBD6AC56ACA6A406BBA6AC26AAE
:10437800D28AD28ED28CD290390181819181A19139
:10438800A591D76A400ED66E080ED56E210E3A0159
:10439800516F1200E60EF66E430EF76E000EF86EC1
:1043A80009006F00D4FF0FF009006F00D4FF10F070
:1043B80000EE01F0080EEE6AE806FDE1080ED56E83
:1043C800400ED66E000ED76E000EF86E0001EDEFAF
:1043D80021F0AEEC21F059EC20F057EF20F021004D
:020000040030CA
:0A000000F8FFFFFF9FFFFFFFFFFF67
:00000001FF
